:020000040800F2
:100000009818002001010008AD2B0008FB2500080E
:10001000E92800082D0B0008A74600080000000092
:10002000000000000000000000000000CD2F0008CC
:10003000A50B0008000000007D2F00089D3000087F
:100040001B0100081B0100081B0100081B01000820
:100050001B0100081B0100081B0100081B01000810
:100060001B0100081B0100081B0100081B01000800
:100070001B0100081B0100081B0100081B010008F0
:100080001B0100081B0100081B0100081B010008E0
:10009000314600081B0100081B0100081B01000875
:1000A0001B0100081B0100081B0100081B010008C0
:1000B000053100081B0100081B0100081B01000896
:1000C0001B0100081B0100081B0100081B010008A0
:1000D0001B010008B9340008C5340008D1340008F9
:1000E0001B0100081B0100081B010008DFF80CD0F1
:1000F00000F08EFC004800470D52000898180020C0
:100100000648804706480047FEE7FEE7FEE7FEE7B1
:10011000FEE7FEE7FEE7FEE7FEE7FEE70131000847
:10012000ED000008202A04DB203A21FA02F0002129
:10013000704721FA02F3D040C2F1200291400843F7
:100140001946704740EA01039B0703D009E008C93C
:10015000121F08C0042AFAD203E011F8013B00F88C
:10016000013B521EF9D27047D2B201E000F8012BD8
:10017000491EFBD270470022F6E710B513460A4627
:1001800004461946FFF7F0FF204610BD421C10F848
:10019000011B0029FBD1801A7047F0B480EA0102EC
:1001A000D40F4200B2EB410F02D20246084611467C
:1001B0004A0042D0C30DDDB2C1F3C752AD1A202DA3
:1001C00035DAC1F3160141F4000204B15242C5F11F
:1001D000200602FA06F12A411044B3EBD05F23D087
:1001E000C4B1012DA0EBC35009DCF0BC4FF00042BC
:1001F00002EAC352DBB200F5000000F066BB40002B
:1002000000F1807000EBC350A0F1807040EAD17023
:10021000490009E0490841EAC071A0EBC35000F56C
:100220000000400800EBC350F0BC00F045BB614249
:10023000012202EB4101001BF6E7F0BC704781F0A0
:100240000041AAE780F00040A7E780EA010210B56C
:1002500002F00043400022D04A001FD0010E01EB03
:100260001261C0F35600C2F3560240F4000042F49B
:100270000002A0FB022000047F39140400D0401CBF
:1002800050EA124001D44000491EC2B20C0604EBF1
:10029000D010401C4008802A02D003E0002010BD8E
:1002A00020F00100002900DA0020184310BD30B40E
:1002B00080EA010202F0004530F0004221F00040E7
:1002C00013D090B1C30DD40DC2F31601C0F31600C4
:1002D000E41A41F4000140F400027D34914201D35C
:1002E000641C00E04900002C02DA30BC002070479A
:1002F0004FF400000023914201D3891A03434008C0
:100300004FEA4101F7D151B1914202D14FF0004182
:1003100005E002D24FF0010101E06FF0010103EBB3
:10032000C450284430BC00F0C7BA420005D0C0F326
:10033000C7525242914201DC0020704700EBC1508D
:1003400070472DE9FE4F804681EA0300C00F0C463E
:10035000009021F0004123F00045B8EB0200A941D4
:1003600005D24046214690461C460B46024623F0E5
:100370000040104347D0270DC7F30A00C3F30A51CA
:100380000290401A019040286BDAC3F3130040F446
:10039000801B0098924620B10023D2EB030A63EB46
:1003A0000B0B01985946C0F14002504600F063FA29
:1003B00006460D4650465946019A00F06BFA10EB7E
:1003C00008006141002487EA115284EAE7731A4366
:1003D00040D0009A62B3019A012A4FEA075215DC15
:1003E000001B61EB02014FF0004202EA0752CDE927
:1003F0000042001C41F5801132462B4600F0A2FA63
:1004000003B0BDE8F08F40462146F9E7001B61EBE1
:100410000201001C41F5801300185B412018A2F571
:10042000001747EB030140EAD570B6196D4111E0A2
:100430006D084FEA360645EAC0754FEA0752001BC1
:1004400061EB0201001C41F5801149084FEA3000C0
:100450000019514132462B4603B0BDE8F04F00F081
:1004600062BA0098012240000023D0EB020263EB45
:10047000E073009821464FEAE074B8EB000061EBAE
:100480000401E9E783F000435BE781F0004158E7AE
:100490002DE9FE4F81EA030404F0004421F00041FD
:1004A00000944FF0000B23F0004350EA01045ED0AB
:1004B00052EA03045BD0C3F30A54C1F30A552C4437
:1004C000A4F2F3340194A0FB0254C1F3130141F4EC
:1004D0008011C3F3130343F4801301FB024400FBB8
:1004E000034E840A970A44EA815447EA8357A4FBDF
:1004F000076802958D0A05FB07854FEA932C04FBDC
:100500000C542705029D4FEA065847EA1637B5EB0B
:1005100008056EEB070C870E920E47EA811742EA38
:100520008312A7FB0201B6EB0B0164EB00042B0D59
:1005300043EA0C335E1844EB1C50DA465146E7FBA5
:100540000201C5F313044FEA0B3343EA14534FEA95
:100550000432019C43EA0603A4F10C040294009CBB
:10056000CDE900B400F0EEF903B0BDE8F08F002053
:100570000146F9E72DE9F04D81EA030404F0004B50
:1005800021F0004514464FF0000A23F0004150EAE4
:10059000050220D054EA01021DD0C5F30A570246D5
:1005A000C5F31303C1F31300C1F30A5640F48015D9
:1005B00043F48013A7EB0608101BD64608F2FD385B
:1005C00073EB050002D308F1010801E092185B41CA
:1005D000B8F1000F03DA00200146BDE8F08D0020DD
:1005E0004FF48011064684460EE0171B73EB050797
:1005F00005D3121B63EB050306434CEA010C4908C3
:100600004FEA300092185B4150EA0107EDD152EAFF
:10061000030012D082EA040083EA0501084305D0F2
:10062000101BAB4106D20122002306E000224FF04E
:10063000004302E06FF0010253101AEB06004CEB8E
:10064000085110EB0A0041EB0B01BDE8F04D00F042
:100650006AB970B521F0004303430CD0C1F30A55C9
:100660000024D5EB040564EB0403D617AD1AB3419F
:1006700002DB0020014670BD201841EB025170BD25
:10068000C10F80EAE0700844CA079623002100F0F9
:100690001CB996230022114600F017B90EB5C10F00
:1006A00080EAE0700844CA07002140F233438DE835
:1006B0000E000A460B4600F045F903B000BD0EB52A
:1006C00040F2334102910021CDE900110A460B4668
:1006D00000F038F903B000BD00F0004220F0004007
:1006E000C10DC0F3160040F400007F2901DA00209C
:1006F0007047962903DCC1F19601C84001E09639A4
:100700008840002AF4D04042704720F00040C10DDC
:10071000C0F3160040F400007F2901DA0020704782
:10072000962903DCC1F19601C8407047963988408C
:10073000704700F0004230F000400AD0C10D01F5D2
:100740006071C0F3160042EA0151C208400711432C
:10075000704700200146704730B5041E71F1000457
:1007600004DB4FF00044404264EB0101141E73F1BE
:10077000000405DB1C464FF00043524263EB0403C8
:10078000994208BF904230BD01F0004330B421F0DF
:10079000004150EA010206D00A0DA2F56072C1F3D1
:1007A0001301002A02DC30BC00207047440F44EAE9
:1007B000C104C100E01830BC00EBC25000F07CB8AE
:1007C000002801DBC0F10040002901DBC1F100413C
:1007D00081427047002801DBC0F10040002901DBA5
:1007E000C1F100418842704730B50B4601460020F8
:1007F0002022012409E021FA02F59D4205D303FAE3
:1008000002F5491B04FA02F52844151EA2F1010263
:10081000F1DC30BD2DE9F05F0546002092469B4695
:1008200088460646814640241BE028464146474606
:100830002246FFF777FC53465A46C01A914110D31F
:1008400011461846224600F016F82D1A67EB0108EB
:100850004F4622460120002100F00DF817EB000959
:100860004E41201EA4F10104DFDC484631462A46F1
:100870004346BDE8F09F202A04DB203A00FA02F14B
:10088000002070479140C2F1200320FA03F319437E
:1008900090407047202A06DBCB17203A41FA02F03D
:1008A00043EAE07306E041FA02F3D040C2F12002CD
:1008B00091400843194670470029A8BF7047401C63
:1008C000490008BF20F00100704710B4B0FA80FC66
:1008D00000FA0CF050EA010404BF10BC704749B1A3
:1008E000CCF1200421FA04F411FA0CF118BF012113
:1008F00021430843A3EB0C01CB1D4FEA00614FEAF3
:10090000102042BF002010BC704700EBC3501044C1
:100910000029A4BF10BC7047401C490008BF20F04C
:10092000010010BC704710B5141E73F1000408DA02
:10093000401C41F1000192185B411A4301D120F0A3
:10094000010010BD2DE9F04D92469B4611B1B1FA60
:1009500081F202E0B0FA80F220329046FFF78BFF7E
:1009600004460F4640EA0A0041EA0B0153465A4644
:10097000084313D0114653EA010019D0C8F14002D0
:100980005046FFF7CFFB05460E46504659464246B5
:10099000FFF771FF084305D0012004E020463946E7
:1009A000BDE8F08D0020054346EAE0762C4337434E
:1009B0000A986305E40AA0EB08000022FD0A44EA55
:1009C00047540A3002D500200146E9E70105101915
:1009D0006941DDE9084500196941BDE8F04DA2E72C
:1009E000C1F30A52C1F3130140F2FF3341F4801105
:1009F0009A4202DA00200146704740F233439A429D
:100A0000A2F2334202DC5242FFF78CBBFFF733BF46
:100A1000064C074D06E0E06840F0010394E807004B
:100A200098471034AC42F6D3FFF764FB0863000824
:100A3000286300082DE9F04D00231A461B1A8A414D
:100A400003DB00200146BDE8F08DC1F30A52C1F37B
:100A5000130141F480154FF0000BD10702D10018AB
:100A60006D41521E0027044640F2FF11384601EB4B
:100A7000620A3E468046024600204FF48011FFF78E
:100A800051FBC2197141BB1846EB0100B4EB030CDA
:100A900075EB000C04D3E41A65EB000517460E460F
:100AA000241908F101006D4180463428E3DDF9196D
:100AB00046EB0600091BA84103D24FF0FF32134654
:100AC00001E0002213461BEB070046EB0A51BDE88C
:100AD000F04DFFF728BF70B58C1810F8015B15F0CA
:100AE000070301D110F8013B2A1106D110F8012BA0
:100AF00003E010F8016B01F8016B5B1EF9D12B07C5
:100B000005D40023521E0DD401F8013BFAE710F87A
:100B1000013BCB1A921C03E013F8015B01F8015B67
:100B2000521EF9D5A142D8D3002070BDFEE70020A7
:100B30007047002070470000094810B5D0F818121F
:100B4000084A00200B5C1354401C1228FADB0548AD
:100B500002F040FA044901200870002010BD000096
:100B60008C0D0020180B0020180000204FF452714B
:100B700048434FF4B471B0FBF1F010B5FFF789FDB5
:100B8000FFF7C3FD80B210BD4FF4B47148434FF47A
:100B90005271B0FBF1F010B5FFF77BFDFFF7B5FD2B
:100BA00080B210BD7047704710B590F82110002436
:100BB000022903D00421816301243DE001680A6811
:100BC00022F00E020A6001680A6822F001020A603F
:100BD0001A4A0168914201D1012121E0174A1432D9
:100BE000914201D110211BE0144A2832914201D1D7
:100BF000891515E0114A3C32914201D189140FE068
:100C00000E4A5032914202D14FF4803108E00B4A33
:100C10006432914202D14FF4801101E04FF08071B3
:100C2000064A083A5160012180F82110002180F81D
:100C30002010416B01B18847204610BD08000240DA
:100C400070B5044600F004F90546601C02D0044863
:100C50000078044400F0FCF8401BA042FAD370BDB9
:100C6000500000202DE9F84FDFF8B891002409F179
:100C7000040A0AF1040B23460F270BF1040EC9E006
:100C80000125A5402A40AA427DD1674ED1F804C073
:100C9000ACEB0608B44532D014DCBCF1030F3AD0FB
:100CA00009DCBCF1000F2AD0BCF1010F1CD0BCF153
:100CB000020F31D11DE0BCF1110F17D0BCF1120FA2
:100CC0002AD119E0B8F5881F19D006DCB8F5803FA5
:100CD00015D0B8F5801F1FD111E0B8F5001F0ED058
:100CE000B8F5041F18D10AE0CB6815E0CB681B1DCE
:100CF00012E0CB6808330FE0CB680C330CE08B6854
:100D00002BB1012B4FF0080303D0456104E004230D
:100D100002E0056100E00023FF2A01D8064601E059
:100D200000F104064FEA840501D9A5F12005D6F8A3
:100D3000008007FA05FC28EA0C0803FA05F548EAE2
:100D40000508C6F800804D68ED0062D5374DAE69E4
:100D500046F00106AE61AD6924F0030605F0010519
:100D60000095334D06EB050CDCF80850A607360F4E
:100D700007FA06F825EA0805DFF8B880404503D1F0
:100D80004FF0000817E044E0DFF8AC80404502D1A6
:100D90004FF001080FE0DFF8A480404502D14FF08A
:100DA000020808E0DFF89880404502D14FF00308C0
:100DB00001E04FF0040808FA06F848EA0508CCF804
:100DC00008804D68D9F80060ED034D4601D5164303
:100DD00000E096432E604D68DAF80060AD0355469A
:100DE00001D5164300E096432E604D68DBF80060A5
:100DF000ED025D4601D5164300E096432E604D6836
:100E0000DEF80060AD02754601D5164300E096435A
:100E10002E60641C0D682A46E5407FF431AFBDE8C2
:100E2000F88F000000040140000011100010024083
:100E30000000014000080140000C0140001001408A
:100E4000001401400AB1016170470904FBE700008A
:100E50000148806870470000500000200248816807
:100E6000027811448160704750000020074810B597
:100E7000016841F010010160032000F075F80020C6
:100E800000F006F800F024F8002010BD0020024019
:100E900070B50D4D04464FF47A712878B1FBF0F02F
:100EA0000A490968B1FBF0F000F0DAFD48B9102CEE
:100EB00007D200222146501E00F036F800206C6058
:100EC00070BD012070BD0000500000205C000020BB
:100ED0000C4808B5816941F001018161816901F027
:100EE00001010091C16941F08051C161C06900F008
:100EF000805000900448416821F0E06141F00071A9
:100F0000416008BD0010024000000140002809DBDC
:100F100000F01F02012191404009800000F1E02013
:100F2000C0F8001170470000F0B40E4B1B680C466F
:100F3000C3F30223C3F10705042D00D90425191DAD
:100F4000072901D2002300E0DB1E012606FA05F185
:100F5000491E214099409E40761E16403143F0BC08
:100F600003F0DABB0CED00E0064900F00702086868
:100F70004FF6FF03184040EA0220034A104308607E
:100F8000704700000CED00E00000FA0510B50C06FB
:100F900005D501F0070100EB4110283003E000EB1C
:100FA000411000F5947099B232B1012202730181AF
:100FB000190C4181002010BD00220273C180F9E7A5
:100FC000704700EB4112D0F86802D26B02F00BBD03
:100FD00000EB4112D0F86802D2F83C2102F058BD73
:100FE00070B504460B0601F0070004EB40114FF00A
:100FF00001024FF0000503D581F82920283103E0D4
:1010000081F8295101F59471087094F8280201289B
:1010100008D084F82822206803F03DF984F828528B
:10102000002070BD022070BD70B5044601F00F00B5
:101030006268904201D9012070BD0B0601F00700E3
:1010400004EB40114FF001024FF0000503D581F889
:101050002920283103E081F8295101F594718D7020
:10106000087094F82802012808D084F82822206803
:1010700003F0B4F984F82852002070BD022070BD3E
:101080002DE9F04104460F0601F0070004EB401182
:101090004FF001064FF0000503D581F82960283193
:1010A00003E081F8295101F5947108700A61CB7051
:1010B0004A7802B1C881022B00D10D7194F8280240
:1010C000012809D084F82862206802F0AFFF284682
:1010D00084F82852BDE8F0810220FBE770B50C4689
:1010E00001F0070500EB4511C1E94F230022C1F8CB
:1010F000442181F8292181F8285101F59471620772
:10110000006803F0C0F9002070BD70B504460D46BC
:1011100001F007006168884201D9012070BD2906ED
:101120004FF000064FF0010205D504EB401181F8A5
:101130002920283105E004EB451181F8296101F5EA
:1011400094718A70087094F82802012807D084F8F6
:101150002822206803F07EF9680702D006E002200A
:1011600070BD04F50C71206803F036F984F828622C
:10117000002070BD70B50C4601F0070500EB45116D
:10118000C1E90F2300224A64012281F8292001F8D5
:10119000285F6207006803F076F9002070BD10B583
:1011A0000446006803F04AFA000402D5204601F024
:1011B000FEFC206803F042FA40050CD5206830F8A8
:1011C000441F21F480610180204600F0FBF80021DB
:1011D000204600F00CF9206803F030FA400405D5F1
:1011E000206830F8441F21F480410180206803F01A
:1011F00025FA800405D5206830F8441F21F40051F9
:101200000180206803F01AFAC00414D5206830F871
:10121000401F21F004010180206830F8401F21F0B8
:1012200008010180204600F0DAF8206830F8441FF9
:1012300021F480510180206803F000FA00051FD5D9
:10124000206830F8401F41F008010180206830F824
:10125000441F21F400610180206830F8401F41F0F4
:1012600004010180206803F0E9F9C00405D5206875
:1012700030F8441F21F480510180204600F0ECF842
:10128000206803F0DBF9800508D5206830F8441F9A
:1012900021F400710180204600F0A5F8206803F0D9
:1012A000CDF9C00505D5206830F8441F21F48071C0
:1012B000018010BD2DE9F04186B0040004D094F8FF
:1012C0002902002520B108E0012006B0BDE8F08128
:1012D00084F82852204600F057F8032084F82902A9
:1012E000206803F072F804F1100114228846684661
:1012F000FEF728FF94E80F0002F0CBFF0227B0BBF7
:101300000021206803F0B4F9002001260DE000BFA1
:1013100004EB401181F8296001F8280FC881CD70D5
:101320000D614D61401CC0B28D6161688142EFD892
:1013300000200FE004EB401181F8295181F82801C9
:1013400081F82B51C1F83851C1F83C51401CC0B252
:10135000C1F8405161688142ECD814224146684688
:10136000FEF7F0FE94E80F0003F020F810B184F8C7
:101370002972A9E784F8245084F82962206803F0D0
:1013800013F80020A1E7000008B500680B49884267
:1013900012D10B48C16941F40001C161C06900224A
:1013A00000F40000009011461420FFF7BDFDBDE8D9
:1013B00008401420FFF7AABD08BD0000005C0040F3
:1013C0000010024010B504460121D0F8680202F076
:1013D00047FCD4F86802BDE8104002F010BCD0F819
:1013E000680202F02BBCD0F8680202F02DBC10B5E8
:1013F000044690F8280201280BD0012084F8280226
:1014000084F82410206803F035F9002084F82802BD
:1014100010BD022010BDD0F8682200F50C711046F6
:1014200002F031BC10B5044690F82802012810D013
:10143000012084F8280201462046FFF7C1FD2068FC
:1014400002F0B0FF206803F0ECF8002084F82802D6
:1014500010BD022010BD000010B50446D0F868028F
:1014600002F05EFCA069002804D00348016841F046
:101470000601016010BD000010ED00E02DE9F84309
:1014800005460078354CC00754D0E0690026C000FE
:1014900008D4E06940F08050E061E069012600F086
:1014A000805000902E480168C90512D4016880461A
:1014B00041F480710160FFF7CBFC074605E000BFF7
:1014C000FFF7C6FCC01B642823D8D8F80000C0056D
:1014D000F6D5206A10F4407021D0A98801F440713B
:1014E00081421CD0206A1F49012220F440700A600A
:1014F00000220A602062C00711D0FFF7A9FC07464E
:1015000041F2883808E000BFFFF7A2FCC11B41454B
:1015100002D90320BDE8F883206A8007F4D5206A49
:10152000696820F44070084320621EB1E06920F031
:101530008050E0612878800705D56068A96820F4AC
:101540004040084360602878C00605D56068E968B7
:1015500020F48000084360600020DBE700100240B8
:1015600000700040400442422DE9F0470F4605005C
:1015700061D0434E306800F00700B84209D23068AD
:1015800020F0070038433060306800F00700B842B0
:1015900051D128683B4C810712D5400703D56068BC
:1015A00040F4E06060602878000703D5606840F48C
:1015B000605060606068A96820F0F00008436060D7
:1015C0002878C00728D06868012810D02168022830
:1015D00010D0890700292EDA616821F00301014348
:1015E0006160FFF735FC804641F288390DE02168E3
:1015F0008903EFE78901EDE7FFF72AFCA0EB08017B
:10160000494502D90320BDE8F0876068696800F0A9
:101610000C00B0EB810FEFD1306800F00700B8424A
:101620000BD9306820F0070038433060306800F094
:101630000700B84201D00120E5E72878400705D52A
:101640006068E96820F4E06008436060287800077B
:1016500006D56068296920F4605040EAC1006060E6
:1016600000F038F86168084AC1F30311515CC840C2
:101670000649086006480068FFF70AFC0020C2E738
:1016800000200240001002405A6200085C00002066
:10169000540000200448054900684968044AC1F321
:1016A0000221515CC84070475C00002000100240DD
:1016B0006A6200080448054900684968044AC1F3A1
:1016C000C221515CC84070475C00002000100240FD
:1016D0006A62000812A185B00FC98DE80F0014A03E
:1016E000144A006804905168134801F00C03042B5D
:1016F00010D0082B0ED1C1F38343C9031DF803009A
:101700000AD5516804AAC1F34041515C0A4A5043CA
:10171000B0FBF1F005B0704708494843FAE7000014
:1017200002030405060708090A0B0C0D0E0F101022
:10173000010200000010024000127A0000093D0082
:101740002DE9F84F040070D02078C04DC00749D073
:101750006868C0F38100012807D06868C0F3810081
:10176000022809D16868C00306D52868800339D5E6
:1017700060680028E7D035E06068B0F5803F0BD0A6
:1017800010B1B0F5A02F11D0286820F48030286067
:10179000286820F4802002E0286840F48030286027
:1017A000606890B1FFF754FB06460AE0286840F4F1
:1017B00080202860F0E700BFFFF74AFB801B642809
:1017C00073D828688003F7D50CE0FFF741FB064685
:1017D00005E000BFFFF73CFB801B6428F0D82868B9
:1017E0008003F7D420789A4E80074FF001094FF01C
:1017F000000839D5686810F00C0F07D06868C0F38E
:101800008100022809D16868C00306D428688007CF
:1018100014D52069012808D110E02069B0B1C6F8BC
:101820000090FFF715FB074605E00AE1FFF710FB04
:10183000C01B0228C4D828688007F7D528686169CA
:1018400020F0F80040EAC10028600DE0C6F80080F2
:10185000FFF7FEFA074604E0FFF7FAFAC01B02287A
:1018600023D828688007F7D4207800072CD579483A
:10187000A169D9B1C0F80090FFF7EAFA074604E081
:10188000FFF7E6FAC01B02280FD8686A8007F7D571
:1018900071484FF4FA510068B0FBF1F0009000BFBE
:1018A0000098411E0091FAD20EE080E0C0F800805E
:1018B000FFF7CEFA074604E0FFF7CAFAC01B02287A
:1018C00075D8686A8007F7D42078400760D5E86942
:1018D0000027C00008D4E86940F08050E861E8695A
:1018E000012700F0805000905C480168C90513D4BE
:1018F0000168834641F480710160FFF7A9FA8246CE
:1019000006E000BFFFF7A4FAA0EB0A0064284ED857
:10191000DBF80000C005F5D5E06801280AD008B161
:10192000052813D0286A20F001002862286A20F0D8
:10193000040002E0286A40F001002862E06841F2F9
:10194000883B98B1FFF784FA82460BE0286A40F0A2
:1019500004002862EEE700BFFFF77AFAA0EB0A0165
:1019600059455AD8286A8007F6D50CE0FFF770FA77
:10197000824605E0FFF76CFAA0EB0A0159454CD806
:10198000286A8007F6D41FB1E86920F08050E8612A
:10199000E06988B36968C1F38101022944D0022853
:1019A000C6F8608004D0FFF753FA044638E034E00C
:1019B000FFF74EFA074604E0FFF74AFAC01B022879
:1019C0002BD828688001F7D4206AB0F5803F05D174
:1019D0006868A16820F4003008436860D4E9080111
:1019E0000843696821F4741108436860C6F8609080
:1019F000FFF72EFA044606E025E000BFFFF728FABD
:101A0000001B022809D828688001F7D51BE000BF19
:101A1000FFF71EFA001B022802D90320BDE8F88F49
:101A200028688001F4D40EE00128F7D06868226AA3
:101A300000F48031914204D1616A00F47010884250
:101A400001D00120EAE70020E8E700000010024092
:101A500000004242800442425C00002000700040CE
:101A600010B5401EB0F1807F01D3012010BD4FF0B2
:101A7000E02460610F21601702F04EFE0020A0619B
:101A800007202061002010BD7047704770B590F8A6
:101A90003C20012A26D0012480F83C40022280F814
:101AA0003D2003685A689D6822F070060A68324338
:101AB0005A600D4B02689A4208D0B2F1804F05D0AF
:101AC0000A4B9A4202D00A4B9A4204D1496825F047
:101AD00080031943916080F83D40002180F83C105C
:101AE000084670BD022070BD002C0140000400407B
:101AF0000008004010B5040003D094F83D0010B178
:101B000007E0012010BD002084F83C00204600F0D2
:101B10001FF8022084F83D00211D206801F0F8FA2A
:101B2000012084F8460084F83E0084F83F0084F8E1
:101B3000400084F8410084F8420084F8430084F8AF
:101B4000440084F8450084F83D00002010BD0000EA
:101B500008B50068B0F1804F12D10A48C16941F060
:101B60000101C161C069002200F00100009011462E
:101B70001C20FFF7D9F9BDE808401C20FFF7C6B9C3
:101B800008BD00000010024090F83D10012901D06E
:101B900001207047022180F83D100168CA6842F0B8
:101BA0000102CA6000680B49884208D0B0F1804F3A
:101BB00005D00949884202D00849884204D1816889
:101BC00001F00701062903D0016841F0010101601D
:101BD00000207047002C0140000400400008004035
:101BE00070B5044690F83C00012817D0012584F810
:101BF0003C50022084F83D002068826822F0770281
:101C000022F47F4282600868502830D00DDC202802
:101C10004DD005DC98B310283BD148E0022070BDC0
:101C2000302844D0402834D139E0602828D07028AA
:101C300006D0B0F5805F2CD0B0F5005F29D10AE066
:101C4000CB68D1E90121206801F0A5FA20688168FC
:101C500041F0770109E0CB68D1E90121206801F06A
:101C60009AFA2068816841F48041816011E0CA6875
:101C70004968206801F044FB5021206807E016E025
:101C8000CA684968206801F04CFB6021206801F0B7
:101C90008CFA84F83D50002084F83C0070BDCA687E
:101CA0004968206801F02CFB40212068EFE722689A
:101CB00001461046EBE72DE9F0410D46040003D044
:101CC00094F83D0018B108E00120BDE8F081002043
:101CD00084F83C00204600F041F8022084F83D00E2
:101CE0002068816844F2070291438160211D2068C9
:101CF00001F00EFA226890689169166A2B68AF6944
:101D0000034340F20330814341EA0721A868EF69A9
:101D100008434FF6FC418843E96840EA0720014345
:101D200028692F6A000140EA0730084369686D6935
:101D300026F0220646EA0515294393602268906141
:101D400054F8460B0162012004F81F09E075207663
:101D5000E0762077A0750020B7E7000000B585B0D9
:101D60000021009101910291039100680D49884280
:101D700016D10D48C16941F00401C161C16901F08A
:101D800004010491816941F008018161806969461B
:101D900000F008000490C02000900448FEF762FFA5
:101DA00005B000BD0008004000100240000C0140DA
:101DB00070B590F83E60044690F83F5090F842307D
:101DC00090F84320022021B104290ED0012E1BD10E
:101DD00014E0012E18D1012B16D184F83E0084F8AE
:101DE000420001220021206820E0012D0CD1012AAF
:101DF0000AD184F83F0084F8430014E0012D03D198
:101E0000012B01D1012A01D0012070BD84F83E00D0
:101E100084F83F0084F8420084F843000122002146
:101E2000206801F0ABF901220421206801F0A6F935
:101E30002068016841F001010160002070BD704719
:101E400070B50446006801694FF00005C943890771
:101E500015D4C168C943890711D4E91E0161012065
:101E60002077206880698007204602D0FFF7E7FFCF
:101E700004E000F0BFF8204600F062F92577206802
:101E80000169C943490717D4C168C943490713D435
:101E90006FF004010161022020772068806910F44E
:101EA000407F204602D0FFF7CAFF04E000F0A2F80E
:101EB000204600F045F9257720680169C9430907E4
:101EC00016D4C168C943090712D46FF00801016133
:101ED000042020772068C0698007204602D0FFF7E1
:101EE000AEFF04E000F086F8204600F029F92577DF
:101EF00020680169C943C90617D4C168C943C90626
:101F000013D46FF010010161082020772068C069A8
:101F100010F4407F204602D0FFF791FF04E000F06C
:101F200069F8204600F00CF9257720680169C9435B
:101F3000C90708D1C168C943C90704D1891E016115
:101F4000204600F04DF920680169C943090609D40B
:101F5000C168C943090605D46FF0800101612046BC
:101F6000FFF792FD20680169C943490609D4C16899
:101F7000C943490605D46FF040010161204600F0D5
:101F800063F920680169C94389060BD4C168C94354
:101F9000890607D46FF0200101612046BDE870403A
:101FA000FFF773BD70BD000000B585B00021009142
:101FB00001910291039100680B49884211D10B48AD
:101FC000816941F0040181618069694600F0040083
:101FD0000490402000900220019003900448FEF7F6
:101FE00041FE05B000BD00000004004000100240AA
:101FF00000080140704770B5044690F83C000D465B
:1020000001280AD0012084F83C0042B1042A18D0EB
:10201000082A2AD00C2A4DD139E0022070BD206850
:1020200001F0CCF82068816941F0080181612068E5
:10203000816921F004018161206881692A69114365
:1020400011E0206801F0E2F82068816941F4006144
:1020500081612068816921F48061816120688169E2
:102060002A6941EA0221816124E0206801F0FAF83E
:102070002068C16941F00801C1612068C16921F08F
:102080000401C1612068C1692A69114311E0206817
:1020900001F014F92068C16941F40061C161206850
:1020A000C16921F48061C1612068C1692A6941EA7E
:1020B0000221C161002084F83C0070BD10B504000D
:1020C00003D094F83D0010B107E0012010BD0020BE
:1020D00084F83C00204600F01FF8022084F83D0000
:1020E000211D206801F014F8012084F8460084F8CE
:1020F0003E0084F83F0084F8400084F8410084F8F2
:10210000420084F8430084F8440084F8450084F8D1
:102110003D00002010BD000008B500680649884257
:1021200008D10648C16941F00201C161C06900F0EF
:102130000200009008BD00000004004000100240B2
:102140007047000010B50446022249B104290ED0A0
:10215000082913D094F84100012816D0012010BDA1
:1021600094F83E000128F9D184F83E200FE094F85D
:102170003F000128F2D184F83F2008E094F84000A5
:102180000128EBD184F8402001E084F841200122AD
:10219000206800F0F3FF0F492068884203D1426CA9
:1021A00042F4004242642068884208D0B0F1804F77
:1021B00005D00949884202D00849884204D1816883
:1021C00001F00701062903D0016841F00101016017
:1021D000002010BD002C0140000400400008004019
:1021E00010B5154900680968884223D11348017861
:1021F0000C291FD2DFE801F01E1E1E061E1E1E1E29
:102200001E1E1E1A0E490988C82908D80D48806864
:10221000FEF77BFABDE8104080B200F081BC0121DE
:102220000170BDE81040002000F074BCBDE8104013
:1022300000F084BB10BD0000F40B0020040000205F
:1022400006000020380000207047704770B5026813
:1022500004461068D168536910F00F0F52D003F094
:10226000010501F490762E435FD0C20705D0CA0560
:1022700003D5E26B42F00102E263420705D5DA07BB
:1022800003D0E26B42F00202E263820705D5DA076F
:1022900003D0E26B42F00402E263020707D501F0CB
:1022A00020022A4303D0E26B42F00802E263E26BB1
:1022B000002A33D0800604D5880602D5204601F0D6
:1022C00058F820684069E16BC0F38010090700D41A
:1022D00028B3204601F03FF82068416949061AD525
:1022E000416921F040014161606BA0B12D4941631A
:1022F000606BFEF759FC002810D0606B416BBDE8A5
:1023000070400847830610D58B060ED52046BDE8E1
:10231000704001F02EB82046FFF797FF70BD2046B1
:10232000FFF793FF0020E06370BD03062BD50B067B
:1023300029D594F839002128F6D1A068B0F5805F3E
:1023400001D12069B0B1206A411C21622168007866
:102350004860E08C401E0004000CE084E4D120685A
:10236000C16821F08001C1602068C16841F040016E
:10237000C16070BD206A0088C0F308005060206A08
:10238000801C2062E5E74006F3D54806F1D5D16808
:10239000204621F04001D160202184F8391000F05E
:1023A0002BF970BD4733000870B5040004D094F8D1
:1023B0003900002510B106E0012070BD84F83850C6
:1023C000204600F023F8242084F839002068C168F2
:1023D00021F40051C160204601F012F82068016923
:1023E00021F4904101612068416921F02A01416195
:1023F0002068C16841F40051C160E563202084F881
:10240000390084F83A00002070BD0000F0B585B0B6
:10241000002400940194029403940368424F022024
:1024200042490322424D4602BB4225D18B6943F407
:1024300080438B618B6903F4804304938B6943F081
:1024400004038B618969039201F004010491010284
:10245000CDE9001069462846FEF704FCCDE900648A
:10246000694628460294FEF7FDFB0022114625200E
:10247000FEF75AFD252028E02E4FBB4229D1CB691B
:1024800043F40033CB61CB6903F4003304938B69CD
:1024900043F004038B618969039201F00401049104
:1024A0000421CDE9001069462846FEF7DBFB082031
:1024B000CDE90004694628460294FEF7D3FB0022CA
:1024C00011462620FEF730FD2620FEF71FFD05B041
:1024D000F0BD194DAB42FAD1CB6943F48023CB61F7
:1024E000CB6903F4802304938B6943F008038B6169
:1024F0008969124D01F00801CDE90321CDE90060A1
:1025000069462846FEF7AEFBE814CDE900046946AB
:1025100028460294FEF7A6FB002211462720FEF76C
:1025200003FD2720D1E700000038014000100240E1
:10253000000801400044004000480040000C0140F9
:1025400090F83A30202B22D1F9B1F2B190F838301E
:10255000012B1CD081628285C2850021C1632222A9
:1025600080F83A2080F838100168CA6842F4807216
:10257000CA6001684A6942F001024A610068C168A4
:1025800041F02001C1600020704701207047022007
:102590007047000070B511490446006809680126BB
:1025A0000F4D884203D12E700E4800F013FD0E49E6
:1025B000206888420BD1FEF74BFC0C49086000F004
:1025C000DFFC07490122491D0948FFF7B9FF094906
:1025D00020680968884200D16E7070BDCC0C002064
:1025E00018000020180B0020004400403400002098
:1025F0000C0D00204C0D00207047FEE72DE9F04740
:1026000086B000242C4800940194029403948169BC
:1026100041F010018161816901F01001049181692B
:1026200041F020018161816901F0200104918169FB
:1026300041F004018161816901F004010491816923
:1026400041F0080181618069DFF8708000F00800C6
:102650004FF400570490002239464046FEF7F2FB43
:10266000DFF85C90002210214846FEF7EBFBDFF814
:1026700054A0002239465046FEF7E4FB022601250D
:1026800000970396CDE9015469464046FEF7EAFA01
:102690001020CDE90005CDE9024669464846FEF71F
:1026A000E1FA00970396CDE9015469465046FEF7DA
:1026B000D9FA06B0BDE8F0870010024000100140D2
:1026C00000080140000C014010B586B000241648F7
:1026D000009401940294039404944FF08041059473
:1026E00001606321C0E9011440F60F61C0E90314E1
:1026F0008461FFF7FFF908B1FEF755FA4FF48050F7
:10270000009069460848FFF76BFA08B1FEF74BFAEC
:10271000049404A904480594FFF7B8F9002801D0EF
:10272000FEF741FA06B010BDF40B002030B589B0B9
:10273000002407941C2168460894FDF71CFD1648E8
:102740001449602501600921C0E9011541F61F41C6
:10275000C0E903148461FFF7B1FC08B1FEF723FA66
:10276000079407A90C480894FFF790F908B1FEF701
:102770001AFACDE9005402940022694606480494EE
:10278000FFF739FC08B1FEF70EFA0348FFF70CFC1F
:1027900009B030BD000400403C0C002010B58CB0E6
:1027A00024216846FDF7E7FC0024164809941449E3
:1027B0000A94C0E900144FF6FF71C0E902410461B8
:1027C00084610320CDE900040120CDE902040494D2
:1027D000CDE90540079469460A480894FFF76BFA6B
:1027E00008B1FEF7E0F9099409A906480A94FFF731
:1027F0004DF9002801D0FEF7D6F90CB010BD00004D
:1028000000080040840C00200C4810B50A49016003
:102810004FF4E1314160002181600C22C160C0E9C8
:1028200004128161C161FFF7BFFD002803D0BDE83C
:102830001040FEF7B8B910BD00380140CC0C0020A4
:102840000C4810B50A4901604FF4E13141600021A4
:1028500081600C22C160C0E904128161C161FFF78F
:10286000A3FD002803D0BDE81040FEF79CB910BDC1
:10287000004400400C0D00200C4810B50A490160CE
:102880004FF4E1314160002181600C22C160C0E958
:1028900004128161C161FFF787FD002803D0BDE804
:1028A0001040FEF780B910BD004800404C0D0020DC
:1028B00010B500220849094801F060F808490748A6
:1028C00001F05BFA0749054800F07EFEBDE81040C4
:1028D000024801F09FBA0000600000208C0D00202B
:1028E000C4000020B0000020FEE7000010B50F4833
:1028F000FFF74AF900210E48FFF724FC00210D489C
:10290000FFF756FA04210B48FFF752FA0A4800F085
:1029100027FB00231A464FF07E51074800F010FBBA
:10292000BDE81040012000F0D5B80000F40B0020F5
:102930003C0C0020840C0020540100202DE9F047BD
:10294000DFF870A15C4D5D4CDAF80000406AE86089
:10295000616A206BFDF734FF16D8D4F83080E76841
:1029600041463846FDF771FC4146FDF76EFCFDF728
:10297000B3FEFDF785FE064601213846FDF7D5FC7E
:102980004146FDF762FC3EE0A16A206BFDF718FFAF
:102990000ED82769216B3846FDF757FC6169FDF7B2
:1029A000FCFBFDF799FEFDF76BFE0646AF602DE0E0
:1029B000D4E90B10FDF704FF27D8D4F83090E7696D
:1029C00049463846FDF741FCD4F81880064649468A
:1029D0004046FDF73AFC4946FDF737FC3146FDF726
:1029E000DCFB216AFDF7D9FBFDF776FEFDF748FE1B
:1029F000064601214046FDF798FC4946FDF725FCB7
:102A00003946FDF7CAFBA86000E0A6683046FDF72E
:102A10007CFE80B2FEF7AAF806462861E868FDF75A
:102A200038FE07463046FDF734FE0146244B3A4651
:102A3000244800F01DFAFDF74FFE00B2224E6860F8
:102A4000002803DB012002E0404205E0002000F006
:102A500041F868680028F7DB316880B24863D4E940
:102A60000B10FDF7B7FE0CD2DAF800100020486218
:102A70006860A860206301202870316800204863E6
:102A80000BE0A88980B2FEF77FF80E4A698802EB56
:102A90004102491CA2F8C0016980206BFDF749FE84
:102AA0000A4A0B4BFDF74DFCFDF76EFE2063BDE8B7
:102AB000F0870000840C002004000020E40A0020BD
:102AC0000AD7233C540100203C0C00207B14AE4765
:102AD000E17A843F70B50D4B0D4D4FF4005468B151
:102AE000012812D1002221461846FEF7ABF9012237
:102AF00021462846BDE87040FEF7A4B901222146D0
:102B00001846FEF79FF90022F2E770BD000C014065
:102B10000010014001490968486370473C0C0020DF
:102B200070B51D490968496A1C4CE160FEF71EF842
:102B300005462061E0684FF6E851884203D94FF618
:102B4000FF71081AE060FDF7A4FD06462846FDF770
:102B5000A0FD0146124B3246124800F089F9FDF7FC
:102B6000BBFD00B2104D6060002803DB012002E0D5
:102B7000404205E00020FFF7ADFF60680028F7DB6A
:102B8000296880B24863074A6088A18902EB400245
:102B9000401C1186608070BD840C00200400002061
:102BA0000AD7233C540100203C0C002070472DE93B
:102BB000F05F044648F60F7B4FF0020A4FF480683E
:102BC0004AE1B0F8441011F00F0629D030F8267011
:102BD000390479D530F8261040F68F72114041F053
:102BE000800120F8261004EB461595F8340105F510
:102BF00094750028206868D0297830F82120520484
:102C00007DD5B0F850200AEBC1010A4408EB42011F
:102C1000415AC1F309015FEA010971D02A89D2E062
:102C2000C9062DD4018801EA0B0141F4004101805D
:102C3000206804F12805B0F850202B780AEBC30176
:102C40000A4408EB4201405AC0F309006064E16B9A
:102C50000844E06300212046FEF7B3F994F824000D
:102C60000028ADD0A8690028AAD194F824002168D2
:102C700040F08000A1F84C00002084F82400EBE034
:102C8000018804F594750A0520D5B0F850202B78FA
:102C9000062101EBC3010A4408EB4201405A04F546
:102CA0000C71C0F30903EB61EA88206801F0CAFCEB
:102CB0002068018840F68F72114041F08001018048
:102CC0002046FEF7A8FBC7E0A2E058E0090455D56E
:102CD000018840F68F72114041F080010180216827
:102CE000B1F850202B78062000EBC300024408EB1B
:102CF0004200085A83059B0DEB6110D001E053E0C0
:102D000065E0696959B1EA88206801F09BFCE969CE
:102D100068690844686100212046FEF759F9206877
:102D2000B0F850100844296900F20C4051B13E2916
:102D300010D84A08C90700D0521C4FF6FF7101EAAB
:102D400082210FE0018821F4F8410180018841F4DB
:102D5000004107E04A09C90600D1521E4FF4004164
:102D600041EA82210180206801884BF68F72114070
:102D700081F4405148F28002114301806CE0B0F8C8
:102D800050202B78062101EBC3010A4408EB4201D5
:102D9000415AC1F309015FEA010924D0EA884B4690
:102DA000696901F04FFC1EE0B0F85030062202EBDA
:102DB000C1015A1808EB4201415AC1F309015FEA07
:102DC000010904D06A894B46696901F03BFC287807
:102DD000226832F8201048F68F73194048F2C00379
:102DE000194322F82010E8694844E861686900EB5B
:102DF00009026A61AB6913B12869484504D9297889
:102E00002046FEF7E5F803E029782046FEF766F94C
:102E1000380621D5216804EB461031F8262002EA55
:102E20000B0242F4004221F826202168B1F85050EC
:102E300010F8282F0AEBC2022A4408EB4202895AF2
:102E4000C1F30901C16142690A44426101788369A1
:102E5000204653B1FEF78EF92068B0F844100904FB
:102E60003FF5AFAE0020BDE8F09FFEF7AAF8F3E70C
:102E70002DE9FC5F99460B46044611461846FDF7BE
:102E8000DEF905462D4801210560A7683846FDF7A3
:102E90004CFA8046019049466068FDF7D6F94946EC
:102EA000FDF7D3F98246564601214846FDF73DFA23
:102EB00083462168FDF7C9F931460090FDF76DF9A9
:102EC0004146FDF76AF96061814602213846009E5D
:102ED000FDF72BFA01465046FDF7B1F93146FDF7F3
:102EE000AEF98046A0610198C4E9070B06465F462B
:102EF0003846A16AFDF7A9F9834630462169FDF7F6
:102F0000A4F9E668824631464046FDF79EF98046C0
:102F100029464846FDF799F94146FDF73EF95146E5
:102F2000FDF73BF95946FDF738F93946FDF7BFF98A
:102F30006062A062C4E90356BDE8FC9F0000002067
:102F400010B50C46034600F00BF8C3E900420349F4
:102F50009C604FF400400968486210BD840C00205A
:102F60000021C160016141618161C1610162416211
:102F70008162014801607047000000207047000036
:102F800070B50B4D0B4C69790A2904D0E8682154BF
:102F9000401CE86070BD074907A001F085FB0021D7
:102FA000E96001E02154401CC828FBDB70BD000033
:102FB000180000202A0B002044617461206E6861B3
:102FC0006E2064756F633A2025730A00704770475E
:102FD0007047000010B5134A01781278914220D151
:102FE0001049407C491C097888421AD104220121E9
:102FF0000D4803F021F90B4C0068A41E0322206148
:103000000521094803F018F90188E18080782072D1
:1030100008221146044803F00FF901686161406815
:10302000A06110BD1A000020180B00202DE9F0410E
:10303000074615460E46122001F002FC0E490446D2
:103040008A7802703868C4F801003088A4F8050056
:10305000B078E0712868A0606868E0600879207442
:10306000C878607412222146044800F0B5FA204660
:10307000BDE8F04101F060BB180000208C0D00207D
:1030800030B5002306E0C45CCD5CAC4201D000202A
:1030900030BD5B1C9342F6DB012030BDFDF7DEBE88
:1030A00030B593B028216846FDF765F814210AA8C9
:1030B000FDF761F8002401200F941094119401048D
:1030C00012948DE8130004900005CDE90810022544
:1030D00007956846FEF734FB0F20CDE90A05680224
:1030E000CDE90C4001210AA80E94FEF73DFA10200C
:1030F0000F90800412900FA8FEF7C0F913B030BDF6
:10310000704700000148FEF79BBE0000F40B002052
:10311000F0B50268164B174C174D4FF08047984298
:1031200005D0B84203D0A04201D0A84203D122F07A
:1031300070064A683243984205D0B84203D0A04294
:1031400001D0A84203D122F44074CA6822434C69DA
:1031500022F08002224302608A68C2620A688262A8
:10316000984201D10969016301214161F0BD00006C
:10317000002C0140000400400008004010B501F0A0
:103180001F030121046A99408C430462016A9A403A
:103190001143016210BD10B5846842EA032224F491
:1031A0007F440A432243826010BD826822F070028D
:1031B0000A4342F0070181607047000030B5026A9F
:1031C00022F001020262026A4368846924F07305F6
:1031D0000C682C4322F002058A682A430A4DA84253
:1031E0000BD122F00805CA6823F440732A434D69C5
:1031F00022F004021D438B692B43436084614968BC
:103200004163026230BD0000002C014030B5026A0B
:1032100022F010020262026A436884690D6824F495
:10322000E64444EA05248D6822F0200242EA0512B1
:103230000B4DA8420ED1CD6822F0800242EA051261
:103240004D6923F4406343EA85038D6922F040020F
:1032500043EA85034360846149688163026230BD4B
:10326000002C014030B5026A22F480720262036AC7
:103270004268C46923F4007324F073050C682C437E
:103280008D6843EA05230C4DA8420ED1CD6823F486
:10329000006343EA05234D6922F4405242EA0512D5
:1032A0008D6923F4806342EA05124260C461496873
:1032B000C163036230BD0000002C014030B5026ADA
:1032C00022F480520262046A4268C3690D6823F4E2
:1032D000E64343EA05238D6824F4005444EA0534A8
:1032E000064DA84204D14D6922F4804242EA85127B
:1032F0004260C36149680164046230BD002C014032
:1033000010B5036A046A24F001040462846924F09D
:10331000F00444EA021423F00A020A4384610262C0
:1033200010BD10B5036A23F0100303628369046AB9
:1033300023F4704343EA023224F0A00343EA01116C
:103340008261016210BD10B5406A0021C185C1844F
:10335000FEF77BFF10BD0168CA6822F49072CA6054
:1033600001684A6922F001024A61202180F83A107E
:10337000704710B590F83A10222901D0022010BDF4
:1033800082684FF480539A4201D1016921B1816A68
:103390009A421BD04AB10AE00268816A5268C2F3BD
:1033A00008020A80816A891C08E0026972B1026819
:1033B000526802F07F020A70816A491C8162C18DE5
:1033C000491E0904090CC18503D016E00268526841
:1033D000F1E70168CA6822F02002CA600168CA6881
:1033E00022F48072CA6001684A6922F001024A61CF
:1033F000202180F83A10FFF7CDF8002010BD000022
:1034000070B5044600680169E26821F44051114337
:1034100001612169A0680843616908432168CA689D
:1034200041F20C639A430243CA6020684169A26971
:1034300021F44071114341611E492068884202D144
:10344000FEF738F901E0FEF725F900EBC00101EBCA
:103450000012606864218000B2FBF0F3B3FBF1F36B
:103460006FF018067343B2FBF0F5B2FBF0F605EB14
:103470008305322303EB0515B5FBF1F5B6FBF1F639
:1034800005F0F00505EB0615B2FBF0F6B2FBF0F027
:10349000B0FBF1F06FF01802504306EB800003EB35
:1034A0000010B0FBF1F0216800F00F0028448860A4
:1034B00070BD0000003801400148FEF7C7BE0000A3
:1034C000CC0C00200148FEF7C1BE00000C0D00200E
:1034D0000148FEF7BBBE00004C0D0020D0F81802DA
:1034E000002180F854100846704770B50546D0F8A2
:1034F0001842D5F81C226178D26820789047412381
:1035000022460121284600F06AFB002070BD10B55C
:103510000446812100F057FA0121204600F053FAB9
:10352000D4F8180250B1D4F81C0204F5067480686F
:103530008047206800F074FD00202060002010BD4E
:1035400010B5D0F81842216D012908D1D0F81C021D
:1035500023786178C26818469047002020650020D3
:1035600010BD0000292101800048704700010020A3
:103570000A210180004870473801002070B50646D6
:10358000002540230322812100F016FB4023032263
:103590000121304600F010FB582000F043FDC6F832
:1035A000180278B10446002084F85400D6F81C02B2
:1035B00040688047412322460121304600F00FFB3E
:1035C000284670BD0125FBE702460220002902D0F3
:1035D0000020C2F81C12704710B5134690F8FC4149
:1035E000D0F81822032C09D192F8544034B90124A0
:1035F00082F854400A46812100F09BFB002010BD58
:1036000070B500220D78D0F81832144615F0600518
:1036100026D0202D4CD14A78921E0A2A1CD2DFE8EF
:1036200002F010081B1B1B1B1B140C058878586428
:103630003EE0012203F1440131E04888000A986429
:1036400036E0012203F1480129E001221A658A7956
:10365000194600F053F82BE000F045F8022070BD49
:103660004D78062D04D00A2D1CD00B2D20D11DE045
:103670004B882225B5EB132F07D1CA881C2A00D905
:103680001C22D0F81C120C6808E02125B5EB132F82
:1036900004D1CA88074C092A00D90922214600F022
:1036A00047F805E0012203F14C01F8E78878D86477
:1036B000002070BD2C01002010B5D0F814225268F3
:1036C0009047002010BD134610B50A46002100F0B7
:1036D00086FA002010BD134610B50A46002100F0FE
:1036E00028FB002010BD10B50446802100F0F8FA38
:1036F0002046BDE81040002100F0F2BA10B50323C7
:10370000C0F80821C0F8F431C0F80C2113460A466D
:10371000002100F064FA002010BD10B5052100233F
:10372000C0F8F4111A46194600F059FA002010BDED
:1037300010B502238261C0F8F431C26113460A4613
:10374000002100F0F6FA002010BD10B5042100237E
:10375000C0F8F4111A46194600F0EBFA002010BD2B
:1037600010B50A46024903A000F0E5F8004810BD74
:10377000B00F0020437573746F6D20484944204397
:103780006F6E66696700000012200880004870476D
:103790008000002010B50A46024903A000F0CBF8D3
:1037A000004810BDB00F0020437573746F6D204842
:1037B000494420496E7465726661636500000000CB
:1037C00004200880004870477C00002010B50A469D
:1037D000024903A000F0AFF8004810BDB00F002070
:1037E00053544D6963726F656C656374726F6E6973
:1037F0006373000010B50A46024903A000F09BF86D
:10380000004810BDB00F002053544D3332205649AC
:10381000525455414C20434F4D20504F52540000BC
:1038200010B50A46024903A000F085F8004810BD13
:10383000B00F002030303030303030303030314157
:1038400000000000F8B5044648880D46010A082922
:1038500054D2DFE801F05304091753534951D4F807
:103860001012207C0A6819E0207C02260028D4F877
:10387000140205D0C16A68468847014646704AE08E
:10388000816AF8E7C1B2062926D2DFE801F0030A0F
:103890000F14191ED4F81012207C4A68694690470C
:1038A00018E0D4F81012207C8A68F7E7D4F81012D8
:1038B000207CCA68F2E7D4F81012207C0A69EDE790
:1038C000D4F81012207C4A69E8E7D4F81012207C62
:1038D0008A69E3E701461EE0C1B2D4F814026A46E1
:1038E000836B20469847F5E7207C38B9D4F814025A
:1038F000416B68468847EDE7207C20B12946204689
:10390000FFF7F1FEF8BDD4F81402016B6846884752
:10391000014607204870BDF800000028F2D0EA8870
:10392000002AEFD0824200D90246ADF8002020469E
:10393000FFF7FEFEF8BD70B5002300281DD0044639
:10394000002502E06D1CEDB2641C2678002EF9D132
:10395000022404EB45041480CC545B1C0322CA549B
:1039600000245B1C06E0CA545B1CDAB28C54521C67
:10397000D3B2401C0278002AF5D170BD10B580B1D9
:10398000D0F8143213B10023C0F8143209B1C0F8D2
:103990001012012180F8FC11027000F0AFF8002035
:1039A00010BD022010BD10B50024D0F82002FDF794
:1039B0003BFB30B1012801D0022801D0022400E0F5
:1039C0000124204610BD10B50024D0F82002FDF7D8
:1039D00007FB30B1012801D0022801D0022400E009
:1039E0000124204610BD2DE9F0411746044641B19F
:1039F000D4F8140242698AB394F8FC01032842D037
:103A000043E0D4F8F411002504F11400022933D165
:103A1000D0E902639E4207D9F31A83609AB239460D
:103A20002046FFF758FE12E04068B0FBF3F103FBBD
:103A30001101A1B9984212D3D4F8F81188420ED2DC
:103A4000002211462046FFF746FEC4F8F851002335
:103A50001A461946204600F0C2F80DE012E0D4F8EC
:103A60001402C16829B194F8FC01032801D1204651
:103A700088472046FFF751FE94F80002012804D140
:103A800084F8005201E0204690470020BDE8F08114
:103A900070B51546044641B1D4F8140282693AB3B0
:103AA00094F8FC01032824D025E0D4F8F41104F59F
:103AB000827003291FD1D0E902218A420BD9531AFF
:103AC00083600846834200D303469AB229462046C3
:103AD000FFF7F9FD0FE0D4F81402016929B194F859
:103AE000FC01032801D1204688472046FFF72DFE20
:103AF00001E020469047002070BD000010B51C4931
:103B00000446C1F86802C0F820121A48086008206C
:103B10004860022088600320C86000208861C86176
:103B200008620846FDF7C6FB20B14FF4977112A05A
:103B3000FDF739F80022D4F820021823114604F5C5
:103B40000874FDF723FA5823002280212068FDF72E
:103B50001DFA9823002281212068FDF717FAD82347
:103B6000002201212068FDF711FA002010BD00009D
:103B70002C100020005C00402E2E2F5553425F4435
:103B800045564943452F5461726765742F757362BA
:103B9000645F636F6E662E63000000000A06D0F853
:103BA000200201F07F0100EB411002D590F82A00BD
:103BB000704790F82A01704770B51D4613460024DF
:103BC000D0F820022A46FDF75BFA30B1012801D077
:103BD000022801D0022400E00124204670BD10B567
:103BE0000024D0F82002FDF779FA30B1012801D085
:103BF000022801D0022400E00124204610BD70B547
:103C00000022044640231146FFF7D6FF40252B46ED
:103C1000002280212046C4F81051FFF7CDFF01207B
:103C2000256284F8FC01D4F8180228B1D4F81402F3
:103C30002179426820469047002070BD90F8FD1120
:103C400080F8FC110020704710B590F8FC11032992
:103C500004D1D0F81412C96901B18847002010BD01
:103C600001740020704710B50024D0F82002FDF741
:103C7000BEFB30B1012801D0022801D0022400E0AF
:103C80000124204610BD70B5044600F502700546BB
:103C900000F05FF80120C4F8F401B4F80E02C4F893
:103CA000F80194F8080210F01F010AD001290DD084
:103CB000022910D000F08001204600F011F8002009
:103CC00070BD2946204600F0AAF8F8E729462046AC
:103CD00000F08CF9F3E72946204600F019F9EEE7E9
:103CE00010B50024D0F82002FDF70FFA30B10128FA
:103CF00001D0022801D0022400E00124204610BD9A
:103D000010B50024D0F82002FDF78CFB30B101285B
:103D100001D0022801D0022400E00124204610BD79
:103D200090F8FC1180F8FD11042180F8FC110020AE
:103D3000704710B50024D0F82002FDF71BFA30B10F
:103D4000012801D0022801D0022400E001242046ED
:103D500010BD0A7802704A7842708A78CB7802EBFC
:103D6000032242800A794B7902EB032282808A790E
:103D7000C97902EB0121C18070470246002011B1D0
:103D8000C2F8141270470220704710B5D0F8142200
:103D900002241AB11268904700B90024204610BDD1
:103DA00070B50E461A4D897804462970012928D825
:103DB00094F8FC01022802D0032822D105E099B131
:103DC0000320616084F8FC0109E091B160688842D9
:103DD0000AD0C1B22046FFF76FFC29786160204607
:103DE000FFF7D3FF02280CD02046BDE87040FFF754
:103DF000ACBC022084F8FC0120466160FFF75CFC4B
:103E0000F2E731462046BDE87040FFF76CBC000089
:103E1000C000002010B5FFF773FF002010BD2DE992
:103E2000F04100264B78012532460A2B43D2DFE8C9
:103E300003F03C584251420805422A27FFF702FD91
:103E400063E004468888C8B9C888B8B9887800F0A3
:103E50007F0794F8FC01032810D084F8FE713946DE
:103E60002046FFF700FF2046FFF76FFC1FB102203E
:103E700084F8FC0149E084F8FC5146E020461AE051
:103E8000FFF78EFF41E0CB88012B14D190F8FC3175
:103E9000022B02D0032B0ED104E08260012200F13C
:103EA000080114E00122011D11E090F8FC21022A12
:103EB00004D0032A02D0FFF716FC26E0C560D0F834
:103EC000041209B10321C160022200F10C01FFF7C5
:103ED0002FFC1AE004464888012816D1C4F8045281
:103EE0000BE0044690F8FC01022801D00328C5D15C
:103EF0004888012809D1C4F80422D4F81402826841
:103F0000204690472046FFF720FC3046BDE8F08170
:103F100070B50D460446287800260979C0F3411093
:103F2000012806D06878A0B301281FD003283FD10C
:103F300007E0D4F814022946826820469047002002
:103F400070BD94F8FC01022817D003282CD1688892
:103F500028B921B1802902D02046FFF7C1FED4F84C
:103F60001402294682682046904713E094F8FC0129
:103F7000022802D0032817D103E0C9B180291BD140
:103F800016E06888A0B9480604D02046FFF70BFD6C
:103F9000E5E703E02046FFF7D8FB09E094F8FC01D1
:103FA000022807D003280BD029462046FFF79BFBA9
:103FB000304670BD4806FBD02046FFF791FEF7E77C
:103FC000080601F07F0004EB001501D5143501E06F
:103FD00005F582752046FFF7E1FD00B1012028605C
:103FE000022229462046FFF7A3FBE1E770B505460C
:103FF00090F8FC010C4603280DD1207901280AD83D
:10400000D5F81402826828469047E08830B92846DF
:10401000FFF79BFB02E02846FFF765FB002070BD21
:104020007047000000487047D00F00202DE9F0478E
:104030000C784FF0000C30F8243048F68F12134003
:10404000CA78002A7DD0012A7CD0022A03D0032A14
:1040500079D04FF0010C48F28002134320F824304D
:104060000D7830F8254048F68F731C402C431443DC
:1040700020F825400F7B48F6BF744BF68F7948F245
:10408000C0054CF28006EFB391F80080C24630F8CC
:10409000287048F280181F4047EA080720F82A7065
:1040A000B0F8507091F80080074407EB0817B1F89A
:1040B000088028F00108A7F80084B0F8507091F843
:1040C0000080074407EB0817B1F80A8028F00108C0
:1040D000A7F808844F7891F80080002F30F82870F6
:1040E0004FEA47477ED0002F05DA30F828701F408E
:1040F000374320F828700F7830F827805FEA486847
:1041000009D500E033E030F8278008EA030848EAE0
:10411000050820F827800F7830F827501D403543D8
:1041200020F82750CB780D78012B30F8253003EAA2
:10413000040301D083F02003134320F825300B78CB
:1041400002E00BE010E00CE030F8231001EA090176
:10415000114320F823106046BDE8F08743F4007354
:1041600079E743F4C06376E743F4806373E74F78FD
:1041700027B3B0F850600F78064406EB0716CF88D7
:1041800027F00107A6F800740F7830F8276076064C
:1041900005D530F827601E402E4320F82760CB78E5
:1041A000012B06D00B7830F82310214081F020013C
:1041B000CEE70B7830F823102140C9E7B0F8504023
:1041C0000D78044404EB0514CD8825F00105A4F80E
:1041D0000854B0F850400D78044404EB051404F280
:1041E0000C4400E030E00D6955B13E2D10D86F0849
:1041F000ED0700D07F1C4FF6FF7505EA87250FE01D
:10420000258825F4F8452580258845F4004507E0F4
:104210006F09ED0600D17F1E4FF4004545EA872562
:1042200025800D7830F82540640405D530F8254008
:104230001C40344320F825400B7830F8231001EA65
:10424000090181F4405183E7002F05DA30F8287026
:104250001F40374320F828700E7830F826707F060C
:1042600005D530F826701F402F4320F826700F78B0
:1042700030F827601E402E4320F827600D7830F874
:10428000253003EA090383F44053134320F8253013
:104290008FE7002070472DE9F04391F80C804F78AC
:1042A0000A7848F6BF7C4BF68F7948F2800348F2D3
:1042B000C0054CF2800648F68F74B8F1000F28D084
:1042C000002F30F822704FEA474748D0002F05DA18
:1042D00030F822702740374320F822700A7830F8EF
:1042E00022707F0605D530F8227027402F4320F832
:1042F00022700D7830F825202240324320F8252006
:104300000C7830F8242002EA0C021A4320F824200A
:104310001AE07FB130F82260760605D530F82260C9
:1043200026402E4320F822600A7830F8221001EA55
:104330000C010EE030F822506D0405D530F8225003
:104340002540354320F822500A7830F8221001EA3F
:104350000901194320F822100020BDE8F083002F46
:1043600005DA30F822702740374320F822700A78A7
:1043700030F82260760605D530F8226026402E43BC
:1043800020F822600E7830F8262022402A4320F8B8
:1043900026200C7830F8242002EA09021A4320F87B
:1043A0002420C1E7002070470020704700B501219C
:1043B000A0F840100021A0F84010A0F84410A0F888
:1043C000501000F02EF9002000BD30F8401F21F4FD
:1043D0003F410180002070470020704730B50A7BC4
:1043E000B2BB4A7848F68F7548F28004C2B10B78A8
:1043F00030F82320520607D530F823202A4048F20F
:10440000C0052A4320F82320CA78012A20D00A7840
:1044100030F8221048F6BF73194081F0200114E0F3
:104420000A7830F822305B0407D530F822302B4070
:104430004CF280052B4320F822300A7830F8221005
:104440004BF68F73194081F44051214320F822101C
:10445000002030BD10B54A780978002A48F2800360
:1044600030F8212005D048F6BF74224082F01002B7
:1044700004E04BF68F74224082F480521A4320F8F5
:104480002120002010BDF0B50E46054691F801C070
:104490000022097B3469B06948F28007BCF1010F42
:1044A00004D0A0424FD9001BB0614EE0A04202D917
:1044B000001BB06101E00446B26169B1307835F8A3
:1044C00020104906B5F85010294401EB001012D510
:1044D000A0F80C44728911E0A3B2F28828467169F1
:1044E00000F0CEF8B5F850003178284400EB011008
:1044F000A0F804441EE0A0F804443289A3B2284680
:10450000716900F0BDF8707848F68F7110B101281C
:1045100007D00FE0327835F82200084048F2C00199
:1045200005E0327835F8220008404CF2800108435B
:1045300025F82200317835F8210048F6BF72104086
:1045400080F0300068E00446B2614FF6FF724FF42D
:10455000004381B3BCF1000F15D027E0018821F49E
:10456000F8410180018841F400410AE03E2C3ED828
:104570006108E30700D0491C02EA812101E043EA17
:104580008121018040E0B5F850003178284400EBEB
:10459000011000F204407CB13E2C15D861085FEA9E
:1045A000C47C00D0491C02EA81210180707810B1DE
:1045B000012821D028E00FE0018821F4F841018092
:1045C000018841F40041F0E761095FEAC46C00D161
:1045D000491E43EA8121E8E7B5F8500031782844C4
:1045E00000EB011000F20C40002CBFD1B6E76109CE
:1045F000E206C4D1491EC2E7B5F850104819317817
:1046000000EB0110A0F80C44317835F821004BF68E
:104610008F72104080F44050384325F8210000206C
:10462000F0BD30F8401F41F43F4101800020704749
:104630000148FCF7B4BD00002C100020B0F8440085
:104640007047000010B500EB42005C0800F5806088
:1046500009D000BF30F8042B01F8012B120A01F831
:10466000012B641EF6D1DA0701D00088087010BD56
:104670000020704711B98021A0F84C10002070472D
:1046800010B55B1C00EB42005B0800F5806009D0B0
:1046900011F8012B11F8014B42EA042220F8042BF7
:1046A0005B1EF5D110BDFEE70FB4054B10B503A995
:1046B000044A029800F0E4F910BC5DF814FB000015
:1046C000B9510008440100200FB4084B10B504A9EB
:1046D00002AA039800F0D4F9044602A9002000F0D1
:1046E00066FD204610BC5DF814FB0000AF510008C9
:1046F000490050EAC12018BF04204A0D18BF40F0FD
:10470000010040F2FF72B2EB515F08BF40F00200BF
:10471000012808BF052070470907090E002804DB9F
:1047200000F1E02080F80014704700F00F0000F165
:10473000E02080F8141D704730B528B1144C031FD9
:10474000002021680A4605E0084630BD9A4203D899
:1047500010465268002AF9D1002800D041680BD0D9
:104760000468A3EB0005A54204D11B681C44034662
:10477000046002E0436000E023603AB11C68D51A8F
:10478000A54203D115682C441C6052685A6030BDA4
:10479000480100202DE9F0414F1E00EBC7010446FF
:1047A000D1E9000115461E4637F006020DD02A4613
:1047B0003346FBF76DFE7F1E04EBC703D3E90023EE
:1047C000FBF7BFFD37F00602F1D1022F25D0042FF1
:1047D00013D0062F18BFBDE8F0812A463346FBF7F9
:1047E00057FED4E90A23FBF7ACFD2A463346FBF714
:1047F0004FFED4E90823FBF7A4FD2A463346FBF716
:1048000047FED4E90623FBF79CFD2A463346FBF717
:104810003FFED4E90423FBF794FD2A463346FBF719
:1048200037FED4E90223FBF78CFD2A463346FBF71B
:104830002FFED4E90023BDE8F041FBF782BD000064
:104840002DE9F04782460F4C10480D4E0E4F001BCD
:104850004FF0000820F007054FF001090022114633
:10486000504600F0ABFC002802D1306810B10020A7
:10487000BDE8F0873C60C4E90058C6F80090EDE759
:104880004C0100209C1200204801002098140020B8
:104890000022134610460149FBF76CBE0000F03FB2
:1048A000FBF74FBD0022134610461146FBF762BED0
:1048B00040F2013200204FF0E041FBF7CABE000099
:1048C000024A00201107FBF7C4BE000001FDFFFFF4
:1048D00002E008C8121F08C1002AFAD170477047C9
:1048E000002001E001C1121F002AFBD17047000027
:1048F0000149086070470000500100202DE9FF5F6A
:1049000082B00021DDE90430020DDDF840B0034340
:1049100018D044F61050A2F2FF32424315141198F9
:1049200001281FD0A5EB0B00401C5FEA000A4FF0E6
:1049300000064E4FDFF83891B046504615D5CAF103
:10494000000413E0119801244AA3012801D16FEA61
:104950000B010298119AC0E90031C0E9024206B089
:10496000BDE8F09FCBF10000DFE704460021404A9C
:10497000491842EB0450CDE9001012E0E00707D0DF
:1049800032463B4640464946FBF782FD8046894613
:1049900032463B4610461946FBF77AFD06460F465F
:1049A0006410002CEAD1DDE90401DDE90023BAF14D
:1049B000000F06DAFBF76CFD42464B46FBF768FD3D
:1049C00005E0FBF7D7FD42464B46FBF7D3FD044617
:1049D0000E460022284BFBF7BFFE03D84FF0FF30F6
:1049E000014607E00022254B20463146FBF7A9FC93
:1049F000FBF7F6FF102409E0002C0ADB0A22002353
:104A0000FBF708FF039B30321A55641E50EA01027F
:104A1000F2D1641C039AC4F111031444119A012ABF
:104A200003D0012208430DD10AE0084304D000203E
:104A30004FF0110B119072E7A3EB0B056D1E0DE00B
:104A40005B4504DD4FF0000205F1010504E003DAE7
:104A50004FF00002A5F10105002AECD0029811994F
:104A6000C0E90231C0E9004579E7000000001440C8
:104A70000000F03F300000000000F0430000E03F85
:104A80002DE9FF4F95B09B468946064600250FE26B
:104A9000252877D100242746F84A0121059400E013
:104AA000044316F8013F203B01FA03F01042F7D10E
:104AB00030782A2811D06FF02F033078A0F130021F
:104AC000092A16D8059A44F0020402EB820203EB8D
:104AD00042021044761C0590EFE759F8042B05922A
:104AE000002A03DA504244F40054059044F00204D2
:104AF000761C30782E2816D116F8010F44F00404E5
:104B00002A280DD06FF02F023078A0F13003092B46
:104B100009D807EB870302EB4303C718761CF3E7BA
:104B200059F8047B761C30786C280FD006DC4C28B2
:104B300017D068280DD06A2814D104E0742810D04A
:104B40007A280FD10DE044F400140AE044F48014F4
:104B500001E044F440147278824202D104F58014DA
:104B6000761C761C307866280BD013DC582877D05A
:104B700009DC002875D04528F6D04628F4D047280F
:104B80001AD19DE118E0632835D0642879D06528D2
:104B900012D195E1702873D008DC6728F1D069281C
:104BA0006FD06E280DD06F2806D1B5E073282CD0B9
:104BB000752875D0782874D05A46179990476D1C7F
:104BC00075E1C4F30250022809D003280DD0D9F8AA
:104BD000001004280DD00D6009F1040967E1D9F82F
:104BE0000010EA17C1E90052F6E7D9F800100D806D
:104BF000F2E70D70F0E719F8041B8DF800100020A3
:104C00008DF80100EA46012003E059F804AB4FF0AB
:104C1000FF3061074FF0000102D40DE008F10101FF
:104C20008846B9420FDA8045F8DB1AF808100029E7
:104C3000F4D108E008F1010188468142FADB1AF854
:104C400008100029F6D105985B46A0EB080721461D
:104C50003846179A00F094FA284400EB080507E05C
:104C60004DE029E10DE01AF8010B5A4617999047DB
:104C7000B8F10108F7D25B4621463846179A13E18E
:104C800042E00A220092C4F302524FF0000A022AC4
:104C900008D059F804CB032A4FEAEC710AD00DE092
:104CA00029E02AE009F1070121F00702F2E802C138
:104CB000914609E00FFA8CFC4FEAEC71042A03D10B
:104CC0004FFA8CFC4FEAEC71002907DA0A46002102
:104CD000DCF1000C61EB02012D2202E0220504D57B
:104CE0002B228DF80420012203E0E20701D02022CC
:104CF000F7E7904659E00A2102E010220DE010216A
:104D00004FF0000A00910BE010224FF0000A44F02F
:104D100004040827009203E008224FF0000A0092E2
:104D2000C4F30252022A05D059F804CB0021032A09
:104D300008D009E009F1070121F00702F2E802C1F9
:104D4000914605E01FFA8CFC042A01D10CF0FF0CFF
:104D50004FF00008220728D5702806D0009B83F06A
:104D6000100353EA0A0305D00EE040228DF8042018
:104D7000012208E05CEA010206D030228DF804200E
:104D80008DF8050002229046009B83F0080353EA49
:104D90000A030AD15CEA010201D1620705D530227B
:104DA0008DF804204FF001087F1E582804D034A04D
:104DB00003900EA802900DE036A0F9E75346604636
:104DC000009AFBF727FD84460398825C0298401EF8
:104DD000029002705CEA0100F0D1029806A9081A5C
:104DE00000F1200A600702D524F4803400E0012796
:104DF000574502DDA7EB0A0000E0002000EB0A01A6
:104E0000009005984144401A0590E00306D45B46A3
:104E10002146179A059800F0B3F90544002706E0EB
:104E200001A85A46C05D179990476D1C7F1C4745E5
:104E3000F6DBE0030CD55B462146179A059800F097
:104E40009FF9054404E030205A46179990476D1C9D
:104E50000099481E00900029F5DC08E002980299AC
:104E60005A460078491C0291179990476D1CBAF177
:104E70000001AAF1010AF1DC65E100000928010046
:104E800030313233343536373839616263646566C0
:104E90000000000030313233343536373839414282
:104EA000434445460000000000F058F90544761CD4
:104EB000307800287FF4ECAD19B02846BDE8F08FBB
:104EC000620700D4062709F1070222F0070CFCE86C
:104ED0000223E14603F000485FEA080C02D00FF21B
:104EE000702C0DE05FEA045C02D50FF2682C07E03D
:104EF0005FEAC47C02D00FF2602C01E0AFF2700CCC
:104F00004FF0FF3823F00043CDF850C065280CD097
:104F100006DC452809D046281DD047283DD13DE074
:104F2000662818D067287ED138E00021112F01DBD8
:104F3000112000E0781CCDE9000106A90EA8FFF7BA
:104F4000DDFCDDE90F010E9A03910021009207F1CB
:104F5000010A04914DE04FF000400097CDE90110A7
:104F600006A90EA8FFF7CAFCDDE90F0203920E9B0B
:104F700011990022DDF80CA00093049211B9791C5C
:104F800000EB010AB7EB0A0004D4C0F1FF3007F1CF
:104F9000010A0490AAEB0700019044E0012F00DA17
:104FA00001270021112F01DD112000E03846CDE955
:104FB000000106A90EA8FFF7A1FCDDE90F010E9A7A
:104FC0000391002104910092BA4621070CD4039961
:104FD000514500DA8A46BAF1010F05DD009AAAF1BF
:104FE0000101515C302908D0B84202DA10F1040FF7
:104FF00006DA0121CDE9011015E0AAF10101E9E786
:10500000002805DC049901440491AAEB000102E0A8
:10501000411C514500DD8A460499401A401C01900C
:105020004FF000400290200704D40198504501DB66
:10503000CDF8048000208DF84F0002980DF14F0745
:10504000B0F1004F25D02B200E9002984FF00208AF
:1050500000280CDA404202902D200E9007E00A2131
:105060000298FBF7C1FB3031029007F8011DB8F13F
:105070000001A8F10108F2DC02980028EFD1791EA6
:105080000E980870307800F0200040F0450007F8D6
:10509000020D12A8C01B00F107081498007800B197
:1050A000012000EB0A01019801EBE07105984144F1
:1050B000401A401E0590E00306D45B462146179A2D
:1050C000059800F05DF805441498007818B15A4628
:1050D000179990476D1CE00324D55B462146179A2B
:1050E000059800F04DF805441CE00498002807DB03
:1050F000DDE90301884203DD0098405C179901E077
:10510000179930205A469047049805F10105401C34
:1051100004900198401E019004D12E205A46179900
:1051200090476D1CBAF10001AAF1010ADDDC05E02F
:1051300017F8010B5A46179990476D1CB8F10001FA
:10514000A8F10108F4DC5B462146179A0598ABE606
:105150002D0000002B000000200000002DE9F04190
:10516000044600251E461746880404D405E0394647
:105170002020B0476D1C641EF9D52846BDE8F0819B
:105180002DE9F041044600251E469046C80301D58E
:10519000302700E02027880404D505E04146384642
:1051A000B0476D1C641EF9D52846BDE8F0810A6839
:1051B000531C0B6010707047704700002DE9F041E0
:1051C0000B3020F00706104D19E02068B04215D3CF
:1051D000B0420AD9871B201DD4F80480FAF7B2FF29
:1051E000A019C0E90078286004E060682860201DEC
:1051F000FAF7A8FF201D2660BDE8F081251D2C6868
:10520000002CE2D10020F7E74801002086B0FBF730
:105210002DFEFDF745FFFDF7F1F9FDF7F5FAFDF776
:1052200053FAFDF783FAFDF7B9FAFDF709FBFDF72D
:1052300023FBFDF73DFBFDF7CBFEFDF757FBDFF84A
:1052400000A401208AF80000FE4CDFF8FCB3DFF870
:10525000FC9304F110054FF0000800BF99F800001E
:1052600000285AD00422FAA1FB48FDF709FF08B133
:10527000022148E00422F9A1F748FDF701FF08B137
:10528000042140E00422F7A1F348FDF7F9FE08B13C
:10529000052138E00422F5A1EF48FDF7F1FE08B141
:1052A000082106E00422F3A1EB48FDF7E9FE18B15E
:1052B00009218AF800102EE00422F0A1E648FDF74B
:1052C000DFFE08B10A211EE00422EEA1E248FDF74C
:1052D000D7FE08B1062116E00422ECA1DE48FDF756
:1052E000CFFE08B107210EE00422EAA1DA48FDF75B
:1052F000C7FE08B10C2106E00422E8A1D648FDF75C
:10530000BFFE28B10D218AF800100120606002E084
:1053100001208AF8000089F80080606801289DD18A
:105320009AF800000E2899D2DFE800F0070832074B
:10533000A20BA9DE073107FEFDFC8FE7C4F804804D
:105340008CE7D84AD849C448FDF770FED54FB879E4
:10535000FBF7B5F902460B460020D44900F05AFA93
:10536000064603917878FBF7AAF93246039BFBF7D0
:1053700001F9064603913878FBF7A1F93246039B01
:10538000FAF7DFFFFBF700FAA060CBF82C0028E269
:10539000C44AC549B048FDF749FEC5484646C0F86D
:1053A0000080A948FDF7DCFDC24800684662C2489B
:1053B0000680BC4EB079FBF782F902460B4600200E
:1053C000BA4900F027FA074603917078FBF777F99E
:1053D0003A46039BFBF7CEF8074603913078FBF77C
:1053E0006EF93A46039BFAF7ACFFFBF7CDF9CBF821
:1053F0000000B079FBF763F902460B460020AB4989
:1054000000F008FA07460391F078FBF758F93A469E
:10541000039BFBF7AFF807460391B078FBF74FF912
:105420003A46039BFAF78DFFFBF7AEF9CBF8040081
:10543000B079FBF744F902460B4600209B4900F087
:10544000E9F9074603917079FBF739F93A46039B6E
:10545000FBF790F8074603913079FBF730F93A46AD
:10546000039BFAF76EFFFBF78FF9CBF80800B8E162
:105470008C4A8D497848FDF7D9FD03216BE1002660
:10548000474629E06F48744A8CA10C30FFF71CF99D
:1054900027800BEB4600A770008E010AA971E87106
:1054A00087480068FBF731F9010A29716871300AF1
:1054B000A870EE70634A2F70C7206870103261497F
:1054C000101FFDF7B3FDE7602780A7702761552007
:1054D0006761FBF7B5FB761C77480088401E864263
:1054E000D0DB89F800707CE16E4A6F495A48FDF7BD
:1054F0009DFD5548FDF734FD72496A4FC1F80080A3
:105500006B49C1F80080FE7806F00F00FBF7C1F888
:10551000039026F00F00FBF7BCF80290BE7830072E
:10552000000D02E01DE104E118E1FBF7B2F8019083
:1055300030090003FBF7ADF80199FAF72EFE029946
:10554000FAF72BFE0399FAF728FE5F4908600190ED
:105550007E7906F00F00FBF79CF8009026F00F0014
:10556000FBF797F804903E793007000DFBF791F8B0
:10557000039030090003FBF78CF80399FAF70DFE4E
:105580000499FAF70AFE0099FAF707FE4E49064613
:105590004860F879029000F00F00FBF77AF803906A
:1055A000029820F00F00FBF774F80290BF793807DB
:1055B000000DFBF76EF8059038090003FBF769F85A
:1055C0000599FAF7EAFD0299FAF7E7FD0399FAF768
:1055D000E4FD3D49074688604FF0FF310198FAF736
:1055E000A4FE3949C86008464FF03F410661304685
:1055F000FAF72BFE3146FAF728FE0199FAF757FE23
:10560000314948614FF03F410198FAF71EFE0146CB
:105610002D48816138460199FAF717FE3146FAF7AD
:1056200046FE3146FAF7B9FD2749C8614FF0FF3110
:105630003046FAF77AFE3146FAF707FE019945E05F
:105640000400002038000020540100201800002031
:105650005350494400000000280000204354554E98
:1056600000000000534543540000000053504544DF
:1056700000000000534552560000000053544F50A4
:1056800000000000475049440000000043534554C7
:10569000000000004352554E0000000047524D5399
:1056A000000000002C0000201E000020000024400C
:1056B00014000020840C0020060000202573000048
:1056C0000000002010000020E40A0020FAF7EFFD9F
:1056D000314605900846FAF7B8FD04904FF03F4177
:1056E0003846FAF7B2FD3946FAF7AFFD0199FAF7F5
:1056F000ACFD0499FAF7DBFD0599FAF7A0FD014628
:105700003A48016230460199FAF7D1FD37494862BB
:10571000019031463846FAF7CAFD3449886201469D
:105720000198FAF73AFD3149C8620846C0F830805E
:1057300057E02F4A2F493048FDF778FC2F4846465E
:10574000C0F800802E48FDF70BFC2E48006846622A
:105750002D480B2106808AF800107FE589F800802B
:105760007CE50026284F34E0234AAFF2B0012748F9
:10577000FEF7AAFFA4F800800BEB460084F8028035
:10578000B0F8C001010AA971E87121480068FAF770
:10579000BCFF010A29716871300AA870EE70388860
:1057A0001A4A801E010A2970121D6870A2F11001A8
:1057B000101FFDF73BFCC4F80C80A4F8008084F8AF
:1057C0000280C4F810805F20C4F81480FBF738FA18
:1057D000761C3888401E8642C6DB89F80080FDF7BB
:1057E000F6FB01208AF8000038E50000E40A0020FA
:1057F0002C0000201E0000202800002014000020A3
:1058000054010020840C00200600002044000020E9
:10581000000000202DE9F04D1D460C4698B01746BB
:1058200021F0004123F00043002814BF4FF0010C89
:105830004FF0000C0CEB440CFE4A0CEB02064FEA56
:10584000620C66452BD33E0018BF012606EB4506C9
:105850001644F94A964222D3F84A53EA070C02D07A
:10586000944205D148B918B000201146BDE8F08D2A
:10587000002808BF4FF0000C01D04FF0010C0CEBDA
:10588000440212F5001F0AD8002F14BF4FF0010C7C
:105890004FF0000C0CEB450212F5001F07D918B0B1
:1058A0003A462B462146BDE8F04DFEF7F9BF0022EF
:1058B000DFF88CA3002CB8BF534526DADFF884C389
:1058C0006345A8BF022220DADFF870C39C451CDCC8
:1058D000DFF874C30CEB235CBCF1140F08DDCCF1D2
:1058E000340627FA06FC0CFA06F6BE420DD108E093
:1058F0005FB9CCF1140623FA06FC0CFA06F69E42B8
:1059000003D10CF00102C2F1020251EA000C19D1DC
:10591000002D17DA002C18BF022A01D0012A07D067
:105920000220FEF7E5FF18B0BDE8F04DFEF7B0BF6E
:105930000220FEF7DDFFFEF7ABFF18B081F000415B
:10594000BDE8F08DB7F1000C6CD1534525D104F1C1
:10595000804212F5801201BF00280020B74918B01C
:1059600008BFBDE8F08DB548884207DC002DA1BF17
:105970006046294618B0BDE8F08D07E0281E05DA1C
:1059800080F0004118B06046BDE8F08DAF49794421
:10599000D1E9000118B0BDE8F08DDFF8A0C2634581
:1059A00025D1002D1FDA19B1514512D1D8B909E01E
:1059B000002840F0EC82A24A214618B062F31E0192
:1059C000BDE8F08D0020214618B060F31E01BDE84F
:1059D000F08D08DA18B02346BDE8F04D02460020ED
:1059E0006146FAF7C7BD18B02146BDE8F08D5145B4
:1059F00018DAB5F1804F0DD0A5F1005CBCF1FF5C69
:105A000010D1B4F1000C0DDB18B06146BDE8F04DCB
:105A100000F0ECBB234618B00246BDE8F04D194635
:105A2000FAF736BD060024F0004C3BD1D9B1514500
:105A300033D1002C06DD002DA1BF0020514618B047
:105A4000BDE8F08D002C01DD002D1BDB002C13DAEE
:105A5000002D11DB012A4FF0000014BF78497C496A
:105A600018B0BDE8F08D022A18BF002C0AD0012A18
:105A700008D1002C06DA0AE0002CB8BF002D11DA9C
:105A8000012A04D0002018B00146BDE8F08D18B0FE
:105A900000204FF00041BDE8F08DA1F14050B0F181
:105AA0007F601AD0012000EBE47050EA020421D09C
:105AB000624C521E4FF0000B104304BF4FF0000B1E
:105AC000644C654883427CDD644A654893421FDD2F
:105AD000884217DB002D25DB37E0002C00DA4AB1C5
